{
  "_format": "hh-sol-artifact-1",
  "contractName": "AgentRegistry",
  "sourceName": "contracts/AgentRegistry.sol",
  "abi": [
    {
      "inputs": [],
      "stateMutability": "nonpayable",
      "type": "constructor"
    },
    {
      "inputs": [
        {
          "internalType": "address",
          "name": "owner",
          "type": "address"
        }
      ],
      "name": "OwnableInvalidOwner",
      "type": "error"
    },
    {
      "inputs": [
        {
          "internalType": "address",
          "name": "account",
          "type": "address"
        }
      ],
      "name": "OwnableUnauthorizedAccount",
      "type": "error"
    },
    {
      "anonymous": false,
      "inputs": [
        {
          "indexed": true,
          "internalType": "string",
          "name": "did",
          "type": "string"
        }
      ],
      "name": "AgentDeactivated",
      "type": "event"
    },
    {
      "anonymous": false,
      "inputs": [
        {
          "indexed": true,
          "internalType": "string",
          "name": "did",
          "type": "string"
        },
        {
          "indexed": true,
          "internalType": "address",
          "name": "owner",
          "type": "address"
        },
        {
          "indexed": false,
          "internalType": "string",
          "name": "endpoint",
          "type": "string"
        }
      ],
      "name": "AgentRegistered",
      "type": "event"
    },
    {
      "anonymous": false,
      "inputs": [
        {
          "indexed": true,
          "internalType": "address",
          "name": "previousOwner",
          "type": "address"
        },
        {
          "indexed": true,
          "internalType": "address",
          "name": "newOwner",
          "type": "address"
        }
      ],
      "name": "OwnershipTransferred",
      "type": "event"
    },
    {
      "inputs": [
        {
          "internalType": "string",
          "name": "_did",
          "type": "string"
        }
      ],
      "name": "deactivateAgent",
      "outputs": [],
      "stateMutability": "nonpayable",
      "type": "function"
    },
    {
      "inputs": [
        {
          "internalType": "string",
          "name": "_did",
          "type": "string"
        }
      ],
      "name": "getAgent",
      "outputs": [
        {
          "internalType": "string",
          "name": "did",
          "type": "string"
        },
        {
          "internalType": "string[]",
          "name": "capabilities",
          "type": "string[]"
        },
        {
          "internalType": "string",
          "name": "endpoint",
          "type": "string"
        },
        {
          "internalType": "uint256",
          "name": "stake",
          "type": "uint256"
        },
        {
          "internalType": "bool",
          "name": "isActive",
          "type": "bool"
        },
        {
          "internalType": "address",
          "name": "owner",
          "type": "address"
        }
      ],
      "stateMutability": "view",
      "type": "function"
    },
    {
      "inputs": [
        {
          "internalType": "string",
          "name": "_did",
          "type": "string"
        }
      ],
      "name": "isAgentActive",
      "outputs": [
        {
          "internalType": "bool",
          "name": "",
          "type": "bool"
        }
      ],
      "stateMutability": "view",
      "type": "function"
    },
    {
      "inputs": [],
      "name": "owner",
      "outputs": [
        {
          "internalType": "address",
          "name": "",
          "type": "address"
        }
      ],
      "stateMutability": "view",
      "type": "function"
    },
    {
      "inputs": [
        {
          "internalType": "string",
          "name": "_did",
          "type": "string"
        },
        {
          "internalType": "string[]",
          "name": "_capabilities",
          "type": "string[]"
        },
        {
          "internalType": "string",
          "name": "_endpoint",
          "type": "string"
        }
      ],
      "name": "registerAgent",
      "outputs": [],
      "stateMutability": "payable",
      "type": "function"
    },
    {
      "inputs": [],
      "name": "renounceOwnership",
      "outputs": [],
      "stateMutability": "nonpayable",
      "type": "function"
    },
    {
      "inputs": [],
      "name": "reputationContract",
      "outputs": [
        {
          "internalType": "address",
          "name": "",
          "type": "address"
        }
      ],
      "stateMutability": "view",
      "type": "function"
    },
    {
      "inputs": [
        {
          "internalType": "address",
          "name": "_reputationContract",
          "type": "address"
        }
      ],
      "name": "setReputationContract",
      "outputs": [],
      "stateMutability": "nonpayable",
      "type": "function"
    },
    {
      "inputs": [
        {
          "internalType": "address",
          "name": "newOwner",
          "type": "address"
        }
      ],
      "name": "transferOwnership",
      "outputs": [],
      "stateMutability": "nonpayable",
      "type": "function"
    }
  ],
  "bytecode": "0x60806040523480156200001157600080fd5b5033600073ffffffffffffffffffffffffffffffffffffffff168173ffffffffffffffffffffffffffffffffffffffff1603620000885760006040517f1e4fbdf70000000000000000000000000000000000000000000000000000000081526004016200007f9190620001a9565b60405180910390fd5b6200009981620000a060201b60201c565b50620001c6565b60008060009054906101000a900473ffffffffffffffffffffffffffffffffffffffff169050816000806101000a81548173ffffffffffffffffffffffffffffffffffffffff021916908373ffffffffffffffffffffffffffffffffffffffff1602179055508173ffffffffffffffffffffffffffffffffffffffff168173ffffffffffffffffffffffffffffffffffffffff167f8be0079c531659141344cd1fd0a4f28419497f9722a3daafe3b4186f6b6457e060405160405180910390a35050565b600073ffffffffffffffffffffffffffffffffffffffff82169050919050565b6000620001918262000164565b9050919050565b620001a38162000184565b82525050565b6000602082019050620001c0600083018462000198565b92915050565b6117be80620001d66000396000f3fe6080604052600436106100865760003560e01c80638da5cb5b116100595780638da5cb5b146101385780639584660f14610163578063efe2d3361461018c578063f183b3e7146101c9578063f2fde38b146101e557610086565b806318697b751461008b578063715018a6146100b4578063794464e9146100cb57806387bc14251461010d575b600080fd5b34801561009757600080fd5b506100b260048036038101906100ad9190610d84565b61020e565b005b3480156100c057600080fd5b506100c961038b565b005b3480156100d757600080fd5b506100f260048036038101906100ed9190610d84565b61039f565b60405161010496959493929190610fcd565b60405180910390f35b34801561011957600080fd5b50610122610613565b60405161012f9190611043565b60405180910390f35b34801561014457600080fd5b5061014d610639565b60405161015a9190611043565b60405180910390f35b34801561016f57600080fd5b5061018a6004803603810190610185919061108a565b610662565b005b34801561019857600080fd5b506101b360048036038101906101ae9190610d84565b6106ae565b6040516101c091906110b7565b60405180910390f35b6101e360048036038101906101de91906111b8565b6106e6565b005b3480156101f157600080fd5b5061020c6004803603810190610207919061108a565b610977565b005b600360009054906101000a900473ffffffffffffffffffffffffffffffffffffffff1673ffffffffffffffffffffffffffffffffffffffff163373ffffffffffffffffffffffffffffffffffffffff161461029e576040517f08c379a0000000000000000000000000000000000000000000000000000000008152600401610295906112d1565b60405180910390fd5b6001816040516102ae919061132d565b908152602001604051809103902060040160009054906101000a900460ff1661030c576040517f08c379a000000000000000000000000000000000000000000000000000000000815260040161030390611390565b60405180910390fd5b600060018260405161031e919061132d565b908152602001604051809103902060040160006101000a81548160ff02191690831515021790555080604051610354919061132d565b60405180910390207febf881b0f9e1b4a0cd64caa43de3b84857b09effa71637f5cbdd156e2331ab5160405160405180910390a250565b6103936109fd565b61039d6000610a84565b565b60608060606000806000806001886040516103ba919061132d565b9081526020016040518091039020905080600001816001018260020183600301548460040160009054906101000a900460ff168560040160019054906101000a900473ffffffffffffffffffffffffffffffffffffffff1685805461041e906113df565b80601f016020809104026020016040519081016040528092919081815260200182805461044a906113df565b80156104975780601f1061046c57610100808354040283529160200191610497565b820191906000526020600020905b81548152906001019060200180831161047a57829003601f168201915b5050505050955084805480602002602001604051908101604052809291908181526020016000905b8282101561056b5783829060005260206000200180546104de906113df565b80601f016020809104026020016040519081016040528092919081815260200182805461050a906113df565b80156105575780601f1061052c57610100808354040283529160200191610557565b820191906000526020600020905b81548152906001019060200180831161053a57829003601f168201915b5050505050815260200190600101906104bf565b50505050945083805461057d906113df565b80601f01602080910402602001604051908101604052809291908181526020018280546105a9906113df565b80156105f65780601f106105cb576101008083540402835291602001916105f6565b820191906000526020600020905b8154815290600101906020018083116105d957829003601f168201915b505050505093509650965096509650965096505091939550919395565b600360009054906101000a900473ffffffffffffffffffffffffffffffffffffffff1681565b60008060009054906101000a900473ffffffffffffffffffffffffffffffffffffffff16905090565b61066a6109fd565b80600360006101000a81548173ffffffffffffffffffffffffffffffffffffffff021916908373ffffffffffffffffffffffffffffffffffffffff16021790555050565b60006001826040516106c0919061132d565b908152602001604051809103902060040160009054906101000a900460ff169050919050565b60006001846040516106f8919061132d565b90815260200160405180910390206000018054610714906113df565b905014610756576040517f08c379a000000000000000000000000000000000000000000000000000000000815260040161074d9061145c565b60405180910390fd5b662386f26fc100003410156107a0576040517f08c379a0000000000000000000000000000000000000000000000000000000008152600401610797906114c8565b60405180910390fd5b6040518060c001604052808481526020018381526020018281526020013481526020016001151581526020013373ffffffffffffffffffffffffffffffffffffffff168152506001846040516107f6919061132d565b908152602001604051809103902060008201518160000190816108199190611694565b506020820151816001019080519060200190610836929190610b50565b50604082015181600201908161084c9190611694565b506060820151816003015560808201518160040160006101000a81548160ff02191690831515021790555060a08201518160040160016101000a81548173ffffffffffffffffffffffffffffffffffffffff021916908373ffffffffffffffffffffffffffffffffffffffff16021790555090505082600260003373ffffffffffffffffffffffffffffffffffffffff1673ffffffffffffffffffffffffffffffffffffffff168152602001908152602001600020908161090d9190611694565b503373ffffffffffffffffffffffffffffffffffffffff1683604051610933919061132d565b60405180910390207fc43f3529413bf4994b5fe9d3ce632ca9fb8a6bb4e9c0662994bb7994f1f5b5e88360405161096a9190611766565b60405180910390a3505050565b61097f6109fd565b600073ffffffffffffffffffffffffffffffffffffffff168173ffffffffffffffffffffffffffffffffffffffff16036109f15760006040517f1e4fbdf70000000000000000000000000000000000000000000000000000000081526004016109e89190611043565b60405180910390fd5b6109fa81610a84565b50565b610a05610b48565b73ffffffffffffffffffffffffffffffffffffffff16610a23610639565b73ffffffffffffffffffffffffffffffffffffffff1614610a8257610a46610b48565b6040517f118cdaa7000000000000000000000000000000000000000000000000000000008152600401610a799190611043565b60405180910390fd5b565b60008060009054906101000a900473ffffffffffffffffffffffffffffffffffffffff169050816000806101000a81548173ffffffffffffffffffffffffffffffffffffffff021916908373ffffffffffffffffffffffffffffffffffffffff1602179055508173ffffffffffffffffffffffffffffffffffffffff168173ffffffffffffffffffffffffffffffffffffffff167f8be0079c531659141344cd1fd0a4f28419497f9722a3daafe3b4186f6b6457e060405160405180910390a35050565b600033905090565b828054828255906000526020600020908101928215610b98579160200282015b82811115610b97578251829081610b879190611694565b5091602001919060010190610b70565b5b509050610ba59190610ba9565b5090565b5b80821115610bc95760008181610bc09190610bcd565b50600101610baa565b5090565b508054610bd9906113df565b6000825580601f10610beb5750610c0a565b601f016020900490600052602060002090810190610c099190610c0d565b5b50565b5b80821115610c26576000816000905550600101610c0e565b5090565b6000604051905090565b600080fd5b600080fd5b600080fd5b600080fd5b6000601f19601f8301169050919050565b7f4e487b7100000000000000000000000000000000000000000000000000000000600052604160045260246000fd5b610c9182610c48565b810181811067ffffffffffffffff82111715610cb057610caf610c59565b5b80604052505050565b6000610cc3610c2a565b9050610ccf8282610c88565b919050565b600067ffffffffffffffff821115610cef57610cee610c59565b5b610cf882610c48565b9050602081019050919050565b82818337600083830152505050565b6000610d27610d2284610cd4565b610cb9565b905082815260208101848484011115610d4357610d42610c43565b5b610d4e848285610d05565b509392505050565b600082601f830112610d6b57610d6a610c3e565b5b8135610d7b848260208601610d14565b91505092915050565b600060208284031215610d9a57610d99610c34565b5b600082013567ffffffffffffffff811115610db857610db7610c39565b5b610dc484828501610d56565b91505092915050565b600081519050919050565b600082825260208201905092915050565b60005b83811015610e07578082015181840152602081019050610dec565b60008484015250505050565b6000610e1e82610dcd565b610e288185610dd8565b9350610e38818560208601610de9565b610e4181610c48565b840191505092915050565b600081519050919050565b600082825260208201905092915050565b6000819050602082019050919050565b600082825260208201905092915050565b6000610e9482610dcd565b610e9e8185610e78565b9350610eae818560208601610de9565b610eb781610c48565b840191505092915050565b6000610ece8383610e89565b905092915050565b6000602082019050919050565b6000610eee82610e4c565b610ef88185610e57565b935083602082028501610f0a85610e68565b8060005b85811015610f465784840389528151610f278582610ec2565b9450610f3283610ed6565b925060208a01995050600181019050610f0e565b50829750879550505050505092915050565b6000819050919050565b610f6b81610f58565b82525050565b60008115159050919050565b610f8681610f71565b82525050565b600073ffffffffffffffffffffffffffffffffffffffff82169050919050565b6000610fb782610f8c565b9050919050565b610fc781610fac565b82525050565b600060c0820190508181036000830152610fe78189610e13565b90508181036020830152610ffb8188610ee3565b9050818103604083015261100f8187610e13565b905061101e6060830186610f62565b61102b6080830185610f7d565b61103860a0830184610fbe565b979650505050505050565b60006020820190506110586000830184610fbe565b92915050565b61106781610fac565b811461107257600080fd5b50565b6000813590506110848161105e565b92915050565b6000602082840312156110a05761109f610c34565b5b60006110ae84828501611075565b91505092915050565b60006020820190506110cc6000830184610f7d565b92915050565b600067ffffffffffffffff8211156110ed576110ec610c59565b5b602082029050602081019050919050565b600080fd5b6000611116611111846110d2565b610cb9565b90508083825260208201905060208402830185811115611139576111386110fe565b5b835b8181101561118057803567ffffffffffffffff81111561115e5761115d610c3e565b5b80860161116b8982610d56565b8552602085019450505060208101905061113b565b5050509392505050565b600082601f83011261119f5761119e610c3e565b5b81356111af848260208601611103565b91505092915050565b6000806000606084860312156111d1576111d0610c34565b5b600084013567ffffffffffffffff8111156111ef576111ee610c39565b5b6111fb86828701610d56565b935050602084013567ffffffffffffffff81111561121c5761121b610c39565b5b6112288682870161118a565b925050604084013567ffffffffffffffff81111561124957611248610c39565b5b61125586828701610d56565b9150509250925092565b7f4f6e6c792072657075746174696f6e20636f6e74726163742063616e2063616c60008201527f6c20746869730000000000000000000000000000000000000000000000000000602082015250565b60006112bb602683610dd8565b91506112c68261125f565b604082019050919050565b600060208201905081810360008301526112ea816112ae565b9050919050565b600081905092915050565b600061130782610dcd565b61131181856112f1565b9350611321818560208601610de9565b80840191505092915050565b600061133982846112fc565b915081905092915050565b7f4167656e7420616c726561647920696e61637469766500000000000000000000600082015250565b600061137a601683610dd8565b915061138582611344565b602082019050919050565b600060208201905081810360008301526113a98161136d565b9050919050565b7f4e487b7100000000000000000000000000000000000000000000000000000000600052602260045260246000fd5b600060028204905060018216806113f757607f821691505b60208210810361140a576114096113b0565b5b50919050565b7f4167656e7420616c726561647920726567697374657265640000000000000000600082015250565b6000611446601883610dd8565b915061145182611410565b602082019050919050565b6000602082019050818103600083015261147581611439565b9050919050565b7f4d696e696d756d207374616b6520726571756972656400000000000000000000600082015250565b60006114b2601683610dd8565b91506114bd8261147c565b602082019050919050565b600060208201905081810360008301526114e1816114a5565b9050919050565b60008190508160005260206000209050919050565b60006020601f8301049050919050565b600082821b905092915050565b60006008830261154a7fffffffffffffffffffffffffffffffffffffffffffffffffffffffffffffffff8261150d565b611554868361150d565b95508019841693508086168417925050509392505050565b6000819050919050565b600061159161158c61158784610f58565b61156c565b610f58565b9050919050565b6000819050919050565b6115ab83611576565b6115bf6115b782611598565b84845461151a565b825550505050565b600090565b6115d46115c7565b6115df8184846115a2565b505050565b5b81811015611603576115f86000826115cc565b6001810190506115e5565b5050565b601f82111561164857611619816114e8565b611622846114fd565b81016020851015611631578190505b61164561163d856114fd565b8301826115e4565b50505b505050565b600082821c905092915050565b600061166b6000198460080261164d565b1980831691505092915050565b6000611684838361165a565b9150826002028217905092915050565b61169d82610dcd565b67ffffffffffffffff8111156116b6576116b5610c59565b5b6116c082546113df565b6116cb828285611607565b600060209050601f8311600181146116fe57600084156116ec578287015190505b6116f68582611678565b86555061175e565b601f19841661170c866114e8565b60005b828110156117345784890151825560018201915060208501945060208101905061170f565b86831015611751578489015161174d601f89168261165a565b8355505b6001600288020188555050505b505050505050565b600060208201905081810360008301526117808184610e13565b90509291505056fea2646970667358221220ca90043ac4113b55540f0d215b0a117fec0e229ddd678af74c08d2e9ee059d4564736f6c63430008140033",
  "linkReferences": {},
  "deployedLinkReferences": {}
}