{
  "_format": "hh-sol-artifact-1",
  "contractName": "DealRecord",
  "sourceName": "contracts/DealRecord.sol",
  "abi": [
    {
      "inputs": [
        {
          "internalType": "address",
          "name": "_reputation",
          "type": "address"
        }
      ],
      "stateMutability": "nonpayable",
      "type": "constructor"
    },
    {
      "inputs": [
        {
          "internalType": "address",
          "name": "owner",
          "type": "address"
        }
      ],
      "name": "OwnableInvalidOwner",
      "type": "error"
    },
    {
      "inputs": [
        {
          "internalType": "address",
          "name": "account",
          "type": "address"
        }
      ],
      "name": "OwnableUnauthorizedAccount",
      "type": "error"
    },
    {
      "anonymous": false,
      "inputs": [
        {
          "indexed": true,
          "internalType": "string",
          "name": "dealId",
          "type": "string"
        },
        {
          "indexed": false,
          "internalType": "string",
          "name": "agentA",
          "type": "string"
        },
        {
          "indexed": false,
          "internalType": "string",
          "name": "agentB",
          "type": "string"
        },
        {
          "indexed": false,
          "internalType": "string",
          "name": "dealHash",
          "type": "string"
        }
      ],
      "name": "DealRecorded",
      "type": "event"
    },
    {
      "anonymous": false,
      "inputs": [
        {
          "indexed": true,
          "internalType": "address",
          "name": "previousOwner",
          "type": "address"
        },
        {
          "indexed": true,
          "internalType": "address",
          "name": "newOwner",
          "type": "address"
        }
      ],
      "name": "OwnershipTransferred",
      "type": "event"
    },
    {
      "inputs": [
        {
          "internalType": "string",
          "name": "_dealId",
          "type": "string"
        }
      ],
      "name": "getDeal",
      "outputs": [
        {
          "components": [
            {
              "internalType": "string",
              "name": "dealId",
              "type": "string"
            },
            {
              "internalType": "string",
              "name": "agentA",
              "type": "string"
            },
            {
              "internalType": "string",
              "name": "agentB",
              "type": "string"
            },
            {
              "internalType": "string",
              "name": "dealHash",
              "type": "string"
            },
            {
              "internalType": "uint256",
              "name": "timestamp",
              "type": "uint256"
            }
          ],
          "internalType": "struct DealRecord.Deal",
          "name": "",
          "type": "tuple"
        }
      ],
      "stateMutability": "view",
      "type": "function"
    },
    {
      "inputs": [],
      "name": "owner",
      "outputs": [
        {
          "internalType": "address",
          "name": "",
          "type": "address"
        }
      ],
      "stateMutability": "view",
      "type": "function"
    },
    {
      "inputs": [
        {
          "internalType": "string",
          "name": "_dealId",
          "type": "string"
        },
        {
          "internalType": "string",
          "name": "_agentA",
          "type": "string"
        },
        {
          "internalType": "string",
          "name": "_agentB",
          "type": "string"
        },
        {
          "internalType": "string",
          "name": "_dealHash",
          "type": "string"
        }
      ],
      "name": "recordDeal",
      "outputs": [],
      "stateMutability": "nonpayable",
      "type": "function"
    },
    {
      "inputs": [],
      "name": "renounceOwnership",
      "outputs": [],
      "stateMutability": "nonpayable",
      "type": "function"
    },
    {
      "inputs": [],
      "name": "reputation",
      "outputs": [
        {
          "internalType": "contract IReputationScore",
          "name": "",
          "type": "address"
        }
      ],
      "stateMutability": "view",
      "type": "function"
    },
    {
      "inputs": [
        {
          "internalType": "address",
          "name": "newOwner",
          "type": "address"
        }
      ],
      "name": "transferOwnership",
      "outputs": [],
      "stateMutability": "nonpayable",
      "type": "function"
    }
  ],
  "bytecode": "0x60806040523480156200001157600080fd5b50604051620014b5380380620014b5833981810160405281019062000037919062000235565b33600073ffffffffffffffffffffffffffffffffffffffff168173ffffffffffffffffffffffffffffffffffffffff1603620000ad5760006040517f1e4fbdf7000000000000000000000000000000000000000000000000000000008152600401620000a4919062000278565b60405180910390fd5b620000be816200010760201b60201c565b5080600260006101000a81548173ffffffffffffffffffffffffffffffffffffffff021916908373ffffffffffffffffffffffffffffffffffffffff1602179055505062000295565b60008060009054906101000a900473ffffffffffffffffffffffffffffffffffffffff169050816000806101000a81548173ffffffffffffffffffffffffffffffffffffffff021916908373ffffffffffffffffffffffffffffffffffffffff1602179055508173ffffffffffffffffffffffffffffffffffffffff168173ffffffffffffffffffffffffffffffffffffffff167f8be0079c531659141344cd1fd0a4f28419497f9722a3daafe3b4186f6b6457e060405160405180910390a35050565b600080fd5b600073ffffffffffffffffffffffffffffffffffffffff82169050919050565b6000620001fd82620001d0565b9050919050565b6200020f81620001f0565b81146200021b57600080fd5b50565b6000815190506200022f8162000204565b92915050565b6000602082840312156200024e576200024d620001cb565b5b60006200025e848285016200021e565b91505092915050565b6200027281620001f0565b82525050565b60006020820190506200028f600083018462000267565b92915050565b61121080620002a56000396000f3fe608060405234801561001057600080fd5b50600436106100625760003560e01c8063715018a6146100675780638da5cb5b14610071578063c52164c61461008f578063e7079180146100ad578063f142d4e7146100dd578063f2fde38b146100f9575b600080fd5b61006f610115565b005b610079610129565b6040516100869190610999565b60405180910390f35b610097610152565b6040516100a49190610a13565b60405180910390f35b6100c760048036038101906100c29190610a9d565b610178565b6040516100d49190610c1e565b60405180910390f35b6100f760048036038101906100f29190610c40565b610405565b005b610113600480360381019061010e9190610d55565b610750565b005b61011d6107d6565b610127600061085d565b565b60008060009054906101000a900473ffffffffffffffffffffffffffffffffffffffff16905090565b600260009054906101000a900473ffffffffffffffffffffffffffffffffffffffff1681565b610180610929565b60018383604051610192929190610dc1565b90815260200160405180910390206040518060a00160405290816000820180546101bb90610e09565b80601f01602080910402602001604051908101604052809291908181526020018280546101e790610e09565b80156102345780601f1061020957610100808354040283529160200191610234565b820191906000526020600020905b81548152906001019060200180831161021757829003601f168201915b5050505050815260200160018201805461024d90610e09565b80601f016020809104026020016040519081016040528092919081815260200182805461027990610e09565b80156102c65780601f1061029b576101008083540402835291602001916102c6565b820191906000526020600020905b8154815290600101906020018083116102a957829003601f168201915b505050505081526020016002820180546102df90610e09565b80601f016020809104026020016040519081016040528092919081815260200182805461030b90610e09565b80156103585780601f1061032d57610100808354040283529160200191610358565b820191906000526020600020905b81548152906001019060200180831161033b57829003601f168201915b5050505050815260200160038201805461037190610e09565b80601f016020809104026020016040519081016040528092919081815260200182805461039d90610e09565b80156103ea5780601f106103bf576101008083540402835291602001916103ea565b820191906000526020600020905b8154815290600101906020018083116103cd57829003601f168201915b50505050508152602001600482015481525050905092915050565b61040d6107d6565b6040518060a0016040528089898080601f016020809104026020016040519081016040528093929190818152602001838380828437600081840152601f19601f82011690508083019250505050505050815260200187878080601f016020809104026020016040519081016040528093929190818152602001838380828437600081840152601f19601f82011690508083019250505050505050815260200185858080601f016020809104026020016040519081016040528093929190818152602001838380828437600081840152601f19601f82011690508083019250505050505050815260200183838080601f016020809104026020016040519081016040528093929190818152602001838380828437600081840152601f19601f8201169050808301925050505050505081526020014281525060018989604051610556929190610dc1565b90815260200160405180910390206000820151816000019081610579919061100b565b50602082015181600101908161058f919061100b565b5060408201518160020190816105a5919061100b565b5060608201518160030190816105bb919061100b565b5060808201518160040155905050600260009054906101000a900473ffffffffffffffffffffffffffffffffffffffff1673ffffffffffffffffffffffffffffffffffffffff1663720ec0a28787600a6040518463ffffffff1660e01b815260040161062993929190611156565b600060405180830381600087803b15801561064357600080fd5b505af1158015610657573d6000803e3d6000fd5b50505050600260009054906101000a900473ffffffffffffffffffffffffffffffffffffffff1673ffffffffffffffffffffffffffffffffffffffff1663720ec0a28585600a6040518463ffffffff1660e01b81526004016106bb93929190611156565b600060405180830381600087803b1580156106d557600080fd5b505af11580156106e9573d6000803e3d6000fd5b5050505087876040516106fd929190610dc1565b60405180910390207fbf387c69835de3c65e2bdf09f0ac61709114c5d999976f8b57cd5e9ff05f433687878787878760405161073e96959493929190611188565b60405180910390a25050505050505050565b6107586107d6565b600073ffffffffffffffffffffffffffffffffffffffff168173ffffffffffffffffffffffffffffffffffffffff16036107ca5760006040517f1e4fbdf70000000000000000000000000000000000000000000000000000000081526004016107c19190610999565b60405180910390fd5b6107d38161085d565b50565b6107de610921565b73ffffffffffffffffffffffffffffffffffffffff166107fc610129565b73ffffffffffffffffffffffffffffffffffffffff161461085b5761081f610921565b6040517f118cdaa70000000000000000000000000000000000000000000000000000000081526004016108529190610999565b60405180910390fd5b565b60008060009054906101000a900473ffffffffffffffffffffffffffffffffffffffff169050816000806101000a81548173ffffffffffffffffffffffffffffffffffffffff021916908373ffffffffffffffffffffffffffffffffffffffff1602179055508173ffffffffffffffffffffffffffffffffffffffff168173ffffffffffffffffffffffffffffffffffffffff167f8be0079c531659141344cd1fd0a4f28419497f9722a3daafe3b4186f6b6457e060405160405180910390a35050565b600033905090565b6040518060a0016040528060608152602001606081526020016060815260200160608152602001600081525090565b600073ffffffffffffffffffffffffffffffffffffffff82169050919050565b600061098382610958565b9050919050565b61099381610978565b82525050565b60006020820190506109ae600083018461098a565b92915050565b6000819050919050565b60006109d96109d46109cf84610958565b6109b4565b610958565b9050919050565b60006109eb826109be565b9050919050565b60006109fd826109e0565b9050919050565b610a0d816109f2565b82525050565b6000602082019050610a286000830184610a04565b92915050565b600080fd5b600080fd5b600080fd5b600080fd5b600080fd5b60008083601f840112610a5d57610a5c610a38565b5b8235905067ffffffffffffffff811115610a7a57610a79610a3d565b5b602083019150836001820283011115610a9657610a95610a42565b5b9250929050565b60008060208385031215610ab457610ab3610a2e565b5b600083013567ffffffffffffffff811115610ad257610ad1610a33565b5b610ade85828601610a47565b92509250509250929050565b600081519050919050565b600082825260208201905092915050565b60005b83811015610b24578082015181840152602081019050610b09565b60008484015250505050565b6000601f19601f8301169050919050565b6000610b4c82610aea565b610b568185610af5565b9350610b66818560208601610b06565b610b6f81610b30565b840191505092915050565b6000819050919050565b610b8d81610b7a565b82525050565b600060a0830160008301518482036000860152610bb08282610b41565b91505060208301518482036020860152610bca8282610b41565b91505060408301518482036040860152610be48282610b41565b91505060608301518482036060860152610bfe8282610b41565b9150506080830151610c136080860182610b84565b508091505092915050565b60006020820190508181036000830152610c388184610b93565b905092915050565b6000806000806000806000806080898b031215610c6057610c5f610a2e565b5b600089013567ffffffffffffffff811115610c7e57610c7d610a33565b5b610c8a8b828c01610a47565b9850985050602089013567ffffffffffffffff811115610cad57610cac610a33565b5b610cb98b828c01610a47565b9650965050604089013567ffffffffffffffff811115610cdc57610cdb610a33565b5b610ce88b828c01610a47565b9450945050606089013567ffffffffffffffff811115610d0b57610d0a610a33565b5b610d178b828c01610a47565b92509250509295985092959890939650565b610d3281610978565b8114610d3d57600080fd5b50565b600081359050610d4f81610d29565b92915050565b600060208284031215610d6b57610d6a610a2e565b5b6000610d7984828501610d40565b91505092915050565b600081905092915050565b82818337600083830152505050565b6000610da88385610d82565b9350610db5838584610d8d565b82840190509392505050565b6000610dce828486610d9c565b91508190509392505050565b7f4e487b7100000000000000000000000000000000000000000000000000000000600052602260045260246000fd5b60006002820490506001821680610e2157607f821691505b602082108103610e3457610e33610dda565b5b50919050565b7f4e487b7100000000000000000000000000000000000000000000000000000000600052604160045260246000fd5b60008190508160005260206000209050919050565b60006020601f8301049050919050565b600082821b905092915050565b600060088302610ecb7fffffffffffffffffffffffffffffffffffffffffffffffffffffffffffffffff82610e8e565b610ed58683610e8e565b95508019841693508086168417925050509392505050565b6000610f08610f03610efe84610b7a565b6109b4565b610b7a565b9050919050565b6000819050919050565b610f2283610eed565b610f36610f2e82610f0f565b848454610e9b565b825550505050565b600090565b610f4b610f3e565b610f56818484610f19565b505050565b5b81811015610f7a57610f6f600082610f43565b600181019050610f5c565b5050565b601f821115610fbf57610f9081610e69565b610f9984610e7e565b81016020851015610fa8578190505b610fbc610fb485610e7e565b830182610f5b565b50505b505050565b600082821c905092915050565b6000610fe260001984600802610fc4565b1980831691505092915050565b6000610ffb8383610fd1565b9150826002028217905092915050565b61101482610aea565b67ffffffffffffffff81111561102d5761102c610e3a565b5b6110378254610e09565b611042828285610f7e565b600060209050601f8311600181146110755760008415611063578287015190505b61106d8582610fef565b8655506110d5565b601f19841661108386610e69565b60005b828110156110ab57848901518255600182019150602085019450602081019050611086565b868310156110c857848901516110c4601f891682610fd1565b8355505b6001600288020188555050505b505050505050565b600082825260208201905092915050565b60006110fa83856110dd565b9350611107838584610d8d565b61111083610b30565b840190509392505050565b6000819050919050565b600061114061113b6111368461111b565b6109b4565b610b7a565b9050919050565b61115081611125565b82525050565b600060408201905081810360008301526111718185876110ee565b90506111806020830184611147565b949350505050565b600060608201905081810360008301526111a381888a6110ee565b905081810360208301526111b88186886110ee565b905081810360408301526111cd8184866110ee565b905097965050505050505056fea26469706673582212202e4b45fa288fa09550eabee63cbe248ef1152fa79737e891feb52a2b6d92ec6664736f6c63430008140033",
  "linkReferences": {},
  "deployedLinkReferences": {}
}