{
  "_format": "hh-sol-artifact-1",
  "contractName": "Escrow",
  "sourceName": "contracts/Escrow.sol",
  "abi": [
    {
      "inputs": [],
      "stateMutability": "nonpayable",
      "type": "constructor"
    },
    {
      "inputs": [
        {
          "internalType": "address",
          "name": "owner",
          "type": "address"
        }
      ],
      "name": "OwnableInvalidOwner",
      "type": "error"
    },
    {
      "inputs": [
        {
          "internalType": "address",
          "name": "account",
          "type": "address"
        }
      ],
      "name": "OwnableUnauthorizedAccount",
      "type": "error"
    },
    {
      "inputs": [],
      "name": "ReentrancyGuardReentrantCall",
      "type": "error"
    },
    {
      "anonymous": false,
      "inputs": [
        {
          "indexed": true,
          "internalType": "string",
          "name": "dealId",
          "type": "string"
        }
      ],
      "name": "EscrowApproved",
      "type": "event"
    },
    {
      "anonymous": false,
      "inputs": [
        {
          "indexed": true,
          "internalType": "string",
          "name": "dealId",
          "type": "string"
        },
        {
          "indexed": false,
          "internalType": "address",
          "name": "buyer",
          "type": "address"
        },
        {
          "indexed": false,
          "internalType": "uint256",
          "name": "totalAmount",
          "type": "uint256"
        }
      ],
      "name": "EscrowCreated",
      "type": "event"
    },
    {
      "anonymous": false,
      "inputs": [
        {
          "indexed": true,
          "internalType": "string",
          "name": "dealId",
          "type": "string"
        }
      ],
      "name": "EscrowRefunded",
      "type": "event"
    },
    {
      "anonymous": false,
      "inputs": [
        {
          "indexed": true,
          "internalType": "address",
          "name": "previousOwner",
          "type": "address"
        },
        {
          "indexed": true,
          "internalType": "address",
          "name": "newOwner",
          "type": "address"
        }
      ],
      "name": "OwnershipTransferred",
      "type": "event"
    },
    {
      "inputs": [
        {
          "internalType": "string",
          "name": "_dealId",
          "type": "string"
        }
      ],
      "name": "approveEscrow",
      "outputs": [],
      "stateMutability": "nonpayable",
      "type": "function"
    },
    {
      "inputs": [
        {
          "internalType": "string",
          "name": "_dealId",
          "type": "string"
        },
        {
          "internalType": "address[]",
          "name": "_sellers",
          "type": "address[]"
        },
        {
          "internalType": "uint256[]",
          "name": "_amounts",
          "type": "uint256[]"
        }
      ],
      "name": "createEscrow",
      "outputs": [],
      "stateMutability": "payable",
      "type": "function"
    },
    {
      "inputs": [
        {
          "internalType": "string",
          "name": "_dealId",
          "type": "string"
        }
      ],
      "name": "getDeal",
      "outputs": [
        {
          "internalType": "address",
          "name": "buyer",
          "type": "address"
        },
        {
          "internalType": "address[]",
          "name": "sellers",
          "type": "address[]"
        },
        {
          "internalType": "uint256[]",
          "name": "amounts",
          "type": "uint256[]"
        },
        {
          "internalType": "uint256",
          "name": "totalAmount",
          "type": "uint256"
        },
        {
          "internalType": "bool",
          "name": "isCompleted",
          "type": "bool"
        },
        {
          "internalType": "bool",
          "name": "isRefunded",
          "type": "bool"
        }
      ],
      "stateMutability": "view",
      "type": "function"
    },
    {
      "inputs": [],
      "name": "owner",
      "outputs": [
        {
          "internalType": "address",
          "name": "",
          "type": "address"
        }
      ],
      "stateMutability": "view",
      "type": "function"
    },
    {
      "inputs": [
        {
          "internalType": "string",
          "name": "_dealId",
          "type": "string"
        }
      ],
      "name": "refundEscrow",
      "outputs": [],
      "stateMutability": "nonpayable",
      "type": "function"
    },
    {
      "inputs": [],
      "name": "renounceOwnership",
      "outputs": [],
      "stateMutability": "nonpayable",
      "type": "function"
    },
    {
      "inputs": [
        {
          "internalType": "address",
          "name": "newOwner",
          "type": "address"
        }
      ],
      "name": "transferOwnership",
      "outputs": [],
      "stateMutability": "nonpayable",
      "type": "function"
    }
  ],
  "bytecode": "0x60806040523480156200001157600080fd5b5033600073ffffffffffffffffffffffffffffffffffffffff168173ffffffffffffffffffffffffffffffffffffffff1603620000885760006040517f1e4fbdf70000000000000000000000000000000000000000000000000000000081526004016200007f919062000207565b60405180910390fd5b6200009981620000c960201b60201c565b506001620000bc620000b06200018d60201b60201c565b620001b860201b60201c565b6000018190555062000224565b60008060009054906101000a900473ffffffffffffffffffffffffffffffffffffffff169050816000806101000a81548173ffffffffffffffffffffffffffffffffffffffff021916908373ffffffffffffffffffffffffffffffffffffffff1602179055508173ffffffffffffffffffffffffffffffffffffffff168173ffffffffffffffffffffffffffffffffffffffff167f8be0079c531659141344cd1fd0a4f28419497f9722a3daafe3b4186f6b6457e060405160405180910390a35050565b60007f9b779b17422d0df92223018b32b4d1fa46e071723d6817e2486d003becc55f0060001b905090565b6000819050919050565b600073ffffffffffffffffffffffffffffffffffffffff82169050919050565b6000620001ef82620001c2565b9050919050565b6200020181620001e2565b82525050565b60006020820190506200021e6000830184620001f6565b92915050565b61216f80620002346000396000f3fe6080604052600436106100705760003560e01c80638e1124b31161004e5780638e1124b3146100e0578063b24565e6146100fc578063e707918014610125578063f2fde38b1461016757610070565b80635fd2f40014610075578063715018a61461009e5780638da5cb5b146100b5575b600080fd5b34801561008157600080fd5b5061009c60048036038101906100979190611182565b610190565b005b3480156100aa57600080fd5b506100b3610430565b005b3480156100c157600080fd5b506100ca610444565b6040516100d7919061120c565b60405180910390f35b6100fa60048036038101906100f59190611414565b61046d565b005b34801561010857600080fd5b50610123600480360381019061011e9190611182565b61081a565b005b34801561013157600080fd5b5061014c60048036038101906101479190611182565b610b18565b60405161015e96959493929190611661565b60405180910390f35b34801561017357600080fd5b5061018e600480360381019061018991906116d0565b610c89565b005b610198610d0f565b60006001826040516101aa919061176e565b908152602001604051809103902090508060010160009054906101000a900473ffffffffffffffffffffffffffffffffffffffff1673ffffffffffffffffffffffffffffffffffffffff163373ffffffffffffffffffffffffffffffffffffffff161461024c576040517f08c379a0000000000000000000000000000000000000000000000000000000008152600401610243906117e2565b60405180910390fd5b8060050160009054906101000a900460ff161561029e576040517f08c379a00000000000000000000000000000000000000000000000000000000081526004016102959061184e565b60405180910390fd5b8060050160019054906101000a900460ff16156102f0576040517f08c379a00000000000000000000000000000000000000000000000000000000081526004016102e7906118ba565b60405180910390fd5b60018160050160016101000a81548160ff02191690831515021790555060008160010160009054906101000a900473ffffffffffffffffffffffffffffffffffffffff1673ffffffffffffffffffffffffffffffffffffffff16826004015460405161035b9061190b565b60006040518083038185875af1925050503d8060008114610398576040519150601f19603f3d011682016040523d82523d6000602084013e61039d565b606091505b50509050806103e1576040517f08c379a00000000000000000000000000000000000000000000000000000000081526004016103d89061196c565b60405180910390fd5b826040516103ef919061176e565b60405180910390207f8e97e11985dfc73fa8b3ba9a5cc135184ec6a02aedc76cd14efea82ee6879a7a60405160405180910390a2505061042d610d32565b50565b610438610d4d565b6104426000610dd4565b565b60008060009054906101000a900473ffffffffffffffffffffffffffffffffffffffff16905090565b60008351116104b1576040517f08c379a00000000000000000000000000000000000000000000000000000000081526004016104a8906119d8565b60405180910390fd5b600073ffffffffffffffffffffffffffffffffffffffff166001846040516104d9919061176e565b908152602001604051809103902060010160009054906101000a900473ffffffffffffffffffffffffffffffffffffffff1673ffffffffffffffffffffffffffffffffffffffff1614610561576040517f08c379a000000000000000000000000000000000000000000000000000000000815260040161055890611a44565b60405180910390fd5b80518251146105a5576040517f08c379a000000000000000000000000000000000000000000000000000000000815260040161059c90611ab0565b60405180910390fd5b60008251116105e9576040517f08c379a00000000000000000000000000000000000000000000000000000000081526004016105e090611b1c565b60405180910390fd5b6000805b82518110156106315782818151811061060957610608611b3c565b5b60200260200101518261061c9190611b9a565b9150808061062990611bce565b9150506105ed565b50803414610674576040517f08c379a000000000000000000000000000000000000000000000000000000000815260040161066b90611c62565b60405180910390fd5b6040518060e001604052808581526020013373ffffffffffffffffffffffffffffffffffffffff168152602001848152602001838152602001828152602001600015158152602001600015158152506001856040516106d3919061176e565b908152602001604051809103902060008201518160000190816106f69190611e8e565b5060208201518160010160006101000a81548173ffffffffffffffffffffffffffffffffffffffff021916908373ffffffffffffffffffffffffffffffffffffffff160217905550604082015181600201908051906020019061075a929190610f34565b506060820151816003019080519060200190610777929190610fbe565b506080820151816004015560a08201518160050160006101000a81548160ff02191690831515021790555060c08201518160050160016101000a81548160ff021916908315150217905550905050836040516107d3919061176e565b60405180910390207ffa05d08980109e2bcccd04dec4a2cc45c291b50a06d6cd0602caf92858e67294338360405161080c929190611f60565b60405180910390a250505050565b610822610d0f565b6000600182604051610834919061176e565b908152602001604051809103902090508060010160009054906101000a900473ffffffffffffffffffffffffffffffffffffffff1673ffffffffffffffffffffffffffffffffffffffff163373ffffffffffffffffffffffffffffffffffffffff16146108d6576040517f08c379a00000000000000000000000000000000000000000000000000000000081526004016108cd90611fd5565b60405180910390fd5b8060050160009054906101000a900460ff1615610928576040517f08c379a000000000000000000000000000000000000000000000000000000000815260040161091f90612041565b60405180910390fd5b8060050160019054906101000a900460ff161561097a576040517f08c379a0000000000000000000000000000000000000000000000000000000008152600401610971906120ad565b60405180910390fd5b60018160050160006101000a81548160ff02191690831515021790555060005b8160020180549050811015610ac95760008260020182815481106109c1576109c0611b3c565b5b9060005260206000200160009054906101000a900473ffffffffffffffffffffffffffffffffffffffff1673ffffffffffffffffffffffffffffffffffffffff16836003018381548110610a1857610a17611b3c565b5b9060005260206000200154604051610a2f9061190b565b60006040518083038185875af1925050503d8060008114610a6c576040519150601f19603f3d011682016040523d82523d6000602084013e610a71565b606091505b5050905080610ab5576040517f08c379a0000000000000000000000000000000000000000000000000000000008152600401610aac90612119565b60405180910390fd5b508080610ac190611bce565b91505061099a565b5081604051610ad8919061176e565b60405180910390207f6b8b61c019e5e26faf218c9d0e756462fcaf94abfcffce663ae4b6d8a1cb0e6360405160405180910390a250610b15610d32565b50565b6000606080600080600080600188604051610b33919061176e565b908152602001604051809103902090508060010160009054906101000a900473ffffffffffffffffffffffffffffffffffffffff16816002018260030183600401548460050160009054906101000a900460ff168560050160019054906101000a900460ff1684805480602002602001604051908101604052809291908181526020018280548015610c1a57602002820191906000526020600020905b8160009054906101000a900473ffffffffffffffffffffffffffffffffffffffff1673ffffffffffffffffffffffffffffffffffffffff1681526020019060010190808311610bd0575b5050505050945083805480602002602001604051908101604052809291908181526020018280548015610c6c57602002820191906000526020600020905b815481526020019060010190808311610c58575b505050505093509650965096509650965096505091939550919395565b610c91610d4d565b600073ffffffffffffffffffffffffffffffffffffffff168173ffffffffffffffffffffffffffffffffffffffff1603610d035760006040517f1e4fbdf7000000000000000000000000000000000000000000000000000000008152600401610cfa919061120c565b60405180910390fd5b610d0c81610dd4565b50565b610d17610e98565b6002610d29610d24610ed9565b610f04565b60000181905550565b6001610d44610d3f610ed9565b610f04565b60000181905550565b610d55610f0e565b73ffffffffffffffffffffffffffffffffffffffff16610d73610444565b73ffffffffffffffffffffffffffffffffffffffff1614610dd257610d96610f0e565b6040517f118cdaa7000000000000000000000000000000000000000000000000000000008152600401610dc9919061120c565b60405180910390fd5b565b60008060009054906101000a900473ffffffffffffffffffffffffffffffffffffffff169050816000806101000a81548173ffffffffffffffffffffffffffffffffffffffff021916908373ffffffffffffffffffffffffffffffffffffffff1602179055508173ffffffffffffffffffffffffffffffffffffffff168173ffffffffffffffffffffffffffffffffffffffff167f8be0079c531659141344cd1fd0a4f28419497f9722a3daafe3b4186f6b6457e060405160405180910390a35050565b610ea0610f16565b15610ed7576040517f3ee5aeb500000000000000000000000000000000000000000000000000000000815260040160405180910390fd5b565b60007f9b779b17422d0df92223018b32b4d1fa46e071723d6817e2486d003becc55f0060001b905090565b6000819050919050565b600033905090565b60006002610f2a610f25610ed9565b610f04565b6000015414905090565b828054828255906000526020600020908101928215610fad579160200282015b82811115610fac5782518260006101000a81548173ffffffffffffffffffffffffffffffffffffffff021916908373ffffffffffffffffffffffffffffffffffffffff16021790555091602001919060010190610f54565b5b509050610fba919061100b565b5090565b828054828255906000526020600020908101928215610ffa579160200282015b82811115610ff9578251825591602001919060010190610fde565b5b509050611007919061100b565b5090565b5b8082111561102457600081600090555060010161100c565b5090565b6000604051905090565b600080fd5b600080fd5b600080fd5b600080fd5b6000601f19601f8301169050919050565b7f4e487b7100000000000000000000000000000000000000000000000000000000600052604160045260246000fd5b61108f82611046565b810181811067ffffffffffffffff821117156110ae576110ad611057565b5b80604052505050565b60006110c1611028565b90506110cd8282611086565b919050565b600067ffffffffffffffff8211156110ed576110ec611057565b5b6110f682611046565b9050602081019050919050565b82818337600083830152505050565b6000611125611120846110d2565b6110b7565b90508281526020810184848401111561114157611140611041565b5b61114c848285611103565b509392505050565b600082601f8301126111695761116861103c565b5b8135611179848260208601611112565b91505092915050565b60006020828403121561119857611197611032565b5b600082013567ffffffffffffffff8111156111b6576111b5611037565b5b6111c284828501611154565b91505092915050565b600073ffffffffffffffffffffffffffffffffffffffff82169050919050565b60006111f6826111cb565b9050919050565b611206816111eb565b82525050565b600060208201905061122160008301846111fd565b92915050565b600067ffffffffffffffff82111561124257611241611057565b5b602082029050602081019050919050565b600080fd5b611261816111eb565b811461126c57600080fd5b50565b60008135905061127e81611258565b92915050565b600061129761129284611227565b6110b7565b905080838252602082019050602084028301858111156112ba576112b9611253565b5b835b818110156112e357806112cf888261126f565b8452602084019350506020810190506112bc565b5050509392505050565b600082601f8301126113025761130161103c565b5b8135611312848260208601611284565b91505092915050565b600067ffffffffffffffff82111561133657611335611057565b5b602082029050602081019050919050565b6000819050919050565b61135a81611347565b811461136557600080fd5b50565b60008135905061137781611351565b92915050565b600061139061138b8461131b565b6110b7565b905080838252602082019050602084028301858111156113b3576113b2611253565b5b835b818110156113dc57806113c88882611368565b8452602084019350506020810190506113b5565b5050509392505050565b600082601f8301126113fb576113fa61103c565b5b813561140b84826020860161137d565b91505092915050565b60008060006060848603121561142d5761142c611032565b5b600084013567ffffffffffffffff81111561144b5761144a611037565b5b61145786828701611154565b935050602084013567ffffffffffffffff81111561147857611477611037565b5b611484868287016112ed565b925050604084013567ffffffffffffffff8111156114a5576114a4611037565b5b6114b1868287016113e6565b9150509250925092565b600081519050919050565b600082825260208201905092915050565b6000819050602082019050919050565b6114f0816111eb565b82525050565b600061150283836114e7565b60208301905092915050565b6000602082019050919050565b6000611526826114bb565b61153081856114c6565b935061153b836114d7565b8060005b8381101561156c57815161155388826114f6565b975061155e8361150e565b92505060018101905061153f565b5085935050505092915050565b600081519050919050565b600082825260208201905092915050565b6000819050602082019050919050565b6115ae81611347565b82525050565b60006115c083836115a5565b60208301905092915050565b6000602082019050919050565b60006115e482611579565b6115ee8185611584565b93506115f983611595565b8060005b8381101561162a57815161161188826115b4565b975061161c836115cc565b9250506001810190506115fd565b5085935050505092915050565b61164081611347565b82525050565b60008115159050919050565b61165b81611646565b82525050565b600060c08201905061167660008301896111fd565b8181036020830152611688818861151b565b9050818103604083015261169c81876115d9565b90506116ab6060830186611637565b6116b86080830185611652565b6116c560a0830184611652565b979650505050505050565b6000602082840312156116e6576116e5611032565b5b60006116f48482850161126f565b91505092915050565b600081519050919050565b600081905092915050565b60005b83811015611731578082015181840152602081019050611716565b60008484015250505050565b6000611748826116fd565b6117528185611708565b9350611762818560208601611713565b80840191505092915050565b600061177a828461173d565b915081905092915050565b600082825260208201905092915050565b7f4f6e6c792062757965722063616e207265717565737420726566756e64000000600082015250565b60006117cc601d83611785565b91506117d782611796565b602082019050919050565b600060208201905081810360008301526117fb816117bf565b9050919050565b7f43616e6e6f7420726566756e6420636f6d706c65746564206465616c00000000600082015250565b6000611838601c83611785565b915061184382611802565b602082019050919050565b600060208201905081810360008301526118678161182b565b9050919050565b7f416c726561647920726566756e64656400000000000000000000000000000000600082015250565b60006118a4601083611785565b91506118af8261186e565b602082019050919050565b600060208201905081810360008301526118d381611897565b9050919050565b600081905092915050565b50565b60006118f56000836118da565b9150611900826118e5565b600082019050919050565b6000611916826118e8565b9150819050919050565b7f526566756e64206661696c656400000000000000000000000000000000000000600082015250565b6000611956600d83611785565b915061196182611920565b602082019050919050565b6000602082019050818103600083015261198581611949565b9050919050565b7f496e76616c6964206465616c2049440000000000000000000000000000000000600082015250565b60006119c2600f83611785565b91506119cd8261198c565b602082019050919050565b600060208201905081810360008301526119f1816119b5565b9050919050565b7f4465616c20616c72656164792065786973747300000000000000000000000000600082015250565b6000611a2e601383611785565b9150611a39826119f8565b602082019050919050565b60006020820190508181036000830152611a5d81611a21565b9050919050565b7f4d69736d6174636865642073656c6c65727320616e6420616d6f756e74730000600082015250565b6000611a9a601e83611785565b9150611aa582611a64565b602082019050919050565b60006020820190508181036000830152611ac981611a8d565b9050919050565b7f4e6f2073656c6c6572732070726f766964656400000000000000000000000000600082015250565b6000611b06601383611785565b9150611b1182611ad0565b602082019050919050565b60006020820190508181036000830152611b3581611af9565b9050919050565b7f4e487b7100000000000000000000000000000000000000000000000000000000600052603260045260246000fd5b7f4e487b7100000000000000000000000000000000000000000000000000000000600052601160045260246000fd5b6000611ba582611347565b9150611bb083611347565b9250828201905080821115611bc857611bc7611b6b565b5b92915050565b6000611bd982611347565b91507fffffffffffffffffffffffffffffffffffffffffffffffffffffffffffffffff8203611c0b57611c0a611b6b565b5b600182019050919050565b7f496e636f72726563742045544820616d6f756e742073656e7400000000000000600082015250565b6000611c4c601983611785565b9150611c5782611c16565b602082019050919050565b60006020820190508181036000830152611c7b81611c3f565b9050919050565b7f4e487b7100000000000000000000000000000000000000000000000000000000600052602260045260246000fd5b60006002820490506001821680611cc957607f821691505b602082108103611cdc57611cdb611c82565b5b50919050565b60008190508160005260206000209050919050565b60006020601f8301049050919050565b600082821b905092915050565b600060088302611d447fffffffffffffffffffffffffffffffffffffffffffffffffffffffffffffffff82611d07565b611d4e8683611d07565b95508019841693508086168417925050509392505050565b6000819050919050565b6000611d8b611d86611d8184611347565b611d66565b611347565b9050919050565b6000819050919050565b611da583611d70565b611db9611db182611d92565b848454611d14565b825550505050565b600090565b611dce611dc1565b611dd9818484611d9c565b505050565b5b81811015611dfd57611df2600082611dc6565b600181019050611ddf565b5050565b601f821115611e4257611e1381611ce2565b611e1c84611cf7565b81016020851015611e2b578190505b611e3f611e3785611cf7565b830182611dde565b50505b505050565b600082821c905092915050565b6000611e6560001984600802611e47565b1980831691505092915050565b6000611e7e8383611e54565b9150826002028217905092915050565b611e97826116fd565b67ffffffffffffffff811115611eb057611eaf611057565b5b611eba8254611cb1565b611ec5828285611e01565b600060209050601f831160018114611ef85760008415611ee6578287015190505b611ef08582611e72565b865550611f58565b601f198416611f0686611ce2565b60005b82811015611f2e57848901518255600182019150602085019450602081019050611f09565b86831015611f4b5784890151611f47601f891682611e54565b8355505b6001600288020188555050505b505050505050565b6000604082019050611f7560008301856111fd565b611f826020830184611637565b9392505050565b7f4f6e6c792062757965722063616e20617070726f766500000000000000000000600082015250565b6000611fbf601683611785565b9150611fca82611f89565b602082019050919050565b60006020820190508181036000830152611fee81611fb2565b9050919050565b7f4465616c20616c726561647920636f6d706c6574656400000000000000000000600082015250565b600061202b601683611785565b915061203682611ff5565b602082019050919050565b6000602082019050818103600083015261205a8161201e565b9050919050565b7f4465616c20616c726561647920726566756e6465640000000000000000000000600082015250565b6000612097601583611785565b91506120a282612061565b602082019050919050565b600060208201905081810360008301526120c68161208a565b9050919050565b7f5472616e7366657220746f2073656c6c6572206661696c656400000000000000600082015250565b6000612103601983611785565b915061210e826120cd565b602082019050919050565b60006020820190508181036000830152612132816120f6565b905091905056fea264697066735822122017899bd2e69a7e4853f4e09eee7eca6186d0631e646991336257c41502df921664736f6c63430008140033",
  "linkReferences": {},
  "deployedLinkReferences": {}
}