{
  "_format": "hh-sol-artifact-1",
  "contractName": "ReputationScore",
  "sourceName": "contracts/ReputationScore.sol",
  "abi": [
    {
      "inputs": [
        {
          "internalType": "address",
          "name": "_registry",
          "type": "address"
        }
      ],
      "stateMutability": "nonpayable",
      "type": "constructor"
    },
    {
      "inputs": [
        {
          "internalType": "address",
          "name": "owner",
          "type": "address"
        }
      ],
      "name": "OwnableInvalidOwner",
      "type": "error"
    },
    {
      "inputs": [
        {
          "internalType": "address",
          "name": "account",
          "type": "address"
        }
      ],
      "name": "OwnableUnauthorizedAccount",
      "type": "error"
    },
    {
      "anonymous": false,
      "inputs": [
        {
          "indexed": true,
          "internalType": "string",
          "name": "did",
          "type": "string"
        }
      ],
      "name": "AgentBlacklisted",
      "type": "event"
    },
    {
      "anonymous": false,
      "inputs": [
        {
          "indexed": true,
          "internalType": "address",
          "name": "previousOwner",
          "type": "address"
        },
        {
          "indexed": true,
          "internalType": "address",
          "name": "newOwner",
          "type": "address"
        }
      ],
      "name": "OwnershipTransferred",
      "type": "event"
    },
    {
      "anonymous": false,
      "inputs": [
        {
          "indexed": true,
          "internalType": "string",
          "name": "did",
          "type": "string"
        },
        {
          "indexed": false,
          "internalType": "int256",
          "name": "newScore",
          "type": "int256"
        }
      ],
      "name": "ScoreUpdated",
      "type": "event"
    },
    {
      "inputs": [],
      "name": "dealRecordContract",
      "outputs": [
        {
          "internalType": "address",
          "name": "",
          "type": "address"
        }
      ],
      "stateMutability": "view",
      "type": "function"
    },
    {
      "inputs": [
        {
          "internalType": "string",
          "name": "_did",
          "type": "string"
        },
        {
          "internalType": "uint256",
          "name": "_amount",
          "type": "uint256"
        }
      ],
      "name": "decreaseScore",
      "outputs": [],
      "stateMutability": "nonpayable",
      "type": "function"
    },
    {
      "inputs": [
        {
          "internalType": "string",
          "name": "_did",
          "type": "string"
        }
      ],
      "name": "getScore",
      "outputs": [
        {
          "internalType": "int256",
          "name": "",
          "type": "int256"
        }
      ],
      "stateMutability": "view",
      "type": "function"
    },
    {
      "inputs": [
        {
          "internalType": "string",
          "name": "_did",
          "type": "string"
        },
        {
          "internalType": "uint256",
          "name": "_amount",
          "type": "uint256"
        }
      ],
      "name": "increaseScore",
      "outputs": [],
      "stateMutability": "nonpayable",
      "type": "function"
    },
    {
      "inputs": [],
      "name": "owner",
      "outputs": [
        {
          "internalType": "address",
          "name": "",
          "type": "address"
        }
      ],
      "stateMutability": "view",
      "type": "function"
    },
    {
      "inputs": [],
      "name": "registry",
      "outputs": [
        {
          "internalType": "contract IAgentRegistry",
          "name": "",
          "type": "address"
        }
      ],
      "stateMutability": "view",
      "type": "function"
    },
    {
      "inputs": [],
      "name": "renounceOwnership",
      "outputs": [],
      "stateMutability": "nonpayable",
      "type": "function"
    },
    {
      "inputs": [
        {
          "internalType": "address",
          "name": "_dealRecordContract",
          "type": "address"
        }
      ],
      "name": "setDealRecordContract",
      "outputs": [],
      "stateMutability": "nonpayable",
      "type": "function"
    },
    {
      "inputs": [
        {
          "internalType": "address",
          "name": "newOwner",
          "type": "address"
        }
      ],
      "name": "transferOwnership",
      "outputs": [],
      "stateMutability": "nonpayable",
      "type": "function"
    }
  ],
  "bytecode": "0x60806040523480156200001157600080fd5b5060405162000fde38038062000fde833981810160405281019062000037919062000235565b33600073ffffffffffffffffffffffffffffffffffffffff168173ffffffffffffffffffffffffffffffffffffffff1603620000ad5760006040517f1e4fbdf7000000000000000000000000000000000000000000000000000000008152600401620000a4919062000278565b60405180910390fd5b620000be816200010760201b60201c565b5080600260006101000a81548173ffffffffffffffffffffffffffffffffffffffff021916908373ffffffffffffffffffffffffffffffffffffffff1602179055505062000295565b60008060009054906101000a900473ffffffffffffffffffffffffffffffffffffffff169050816000806101000a81548173ffffffffffffffffffffffffffffffffffffffff021916908373ffffffffffffffffffffffffffffffffffffffff1602179055508173ffffffffffffffffffffffffffffffffffffffff168173ffffffffffffffffffffffffffffffffffffffff167f8be0079c531659141344cd1fd0a4f28419497f9722a3daafe3b4186f6b6457e060405160405180910390a35050565b600080fd5b600073ffffffffffffffffffffffffffffffffffffffff82169050919050565b6000620001fd82620001d0565b9050919050565b6200020f81620001f0565b81146200021b57600080fd5b50565b6000815190506200022f8162000204565b92915050565b6000602082840312156200024e576200024d620001cb565b5b60006200025e848285016200021e565b91505092915050565b6200027281620001f0565b82525050565b60006020820190506200028f600083018462000267565b92915050565b610d3980620002a56000396000f3fe608060405234801561001057600080fd5b50600436106100935760003560e01c80637b103999116100665780637b1039991461010a5780638da5cb5b14610128578063ac9cafa514610146578063d7fd212714610164578063f2fde38b1461018057610093565b8063150572b71461009857806316020273146100b4578063715018a6146100e4578063720ec0a2146100ee575b600080fd5b6100b260048036038101906100ad91906108c9565b61019c565b005b6100ce60048036038101906100c9919061095b565b6101e8565b6040516100db91906109c1565b60405180910390f35b6100ec610213565b005b61010860048036038101906101039190610a12565b610227565b005b61011261039f565b60405161011f9190610ad1565b60405180910390f35b6101306103c5565b60405161013d9190610afb565b60405180910390f35b61014e6103ee565b60405161015b9190610afb565b60405180910390f35b61017e60048036038101906101799190610a12565b610414565b005b61019a600480360381019061019591906108c9565b610688565b005b6101a461070e565b80600360006101000a81548173ffffffffffffffffffffffffffffffffffffffff021916908373ffffffffffffffffffffffffffffffffffffffff16021790555050565b6000600183836040516101fc929190610b55565b908152602001604051809103902054905092915050565b61021b61070e565b6102256000610795565b565b61022f6103c5565b73ffffffffffffffffffffffffffffffffffffffff163373ffffffffffffffffffffffffffffffffffffffff1614806102b55750600360009054906101000a900473ffffffffffffffffffffffffffffffffffffffff1673ffffffffffffffffffffffffffffffffffffffff163373ffffffffffffffffffffffffffffffffffffffff16145b6102f4576040517f08c379a00000000000000000000000000000000000000000000000000000000081526004016102eb90610bcb565b60405180910390fd5b8060018484604051610307929190610b55565b908152602001604051809103902060008282546103249190610c1a565b92505081905550828260405161033b929190610b55565b60405180910390207f21882fde27b2f097d6263306848a16bc593ee98783716872b03d6e891381e07a60018585604051610376929190610b55565b90815260200160405180910390205460405161039291906109c1565b60405180910390a2505050565b600260009054906101000a900473ffffffffffffffffffffffffffffffffffffffff1681565b60008060009054906101000a900473ffffffffffffffffffffffffffffffffffffffff16905090565b600360009054906101000a900473ffffffffffffffffffffffffffffffffffffffff1681565b61041c6103c5565b73ffffffffffffffffffffffffffffffffffffffff163373ffffffffffffffffffffffffffffffffffffffff1614806104a25750600360009054906101000a900473ffffffffffffffffffffffffffffffffffffffff1673ffffffffffffffffffffffffffffffffffffffff163373ffffffffffffffffffffffffffffffffffffffff16145b6104e1576040517f08c379a00000000000000000000000000000000000000000000000000000000081526004016104d890610bcb565b60405180910390fd5b80600184846040516104f4929190610b55565b908152602001604051809103902060008282546105119190610c5e565b925050819055508282604051610528929190610b55565b60405180910390207f21882fde27b2f097d6263306848a16bc593ee98783716872b03d6e891381e07a60018585604051610563929190610b55565b90815260200160405180910390205460405161057f91906109c1565b60405180910390a260006001848460405161059b929190610b55565b9081526020016040518091039020541361068357600260009054906101000a900473ffffffffffffffffffffffffffffffffffffffff1673ffffffffffffffffffffffffffffffffffffffff166318697b7584846040518363ffffffff1660e01b815260040161060c929190610cdf565b600060405180830381600087803b15801561062657600080fd5b505af115801561063a573d6000803e3d6000fd5b50505050828260405161064e929190610b55565b60405180910390207f97c4f8d65f81bdf50b97b559868e492bd9ff54d63f25dfdb072e35131090dfba60405160405180910390a25b505050565b61069061070e565b600073ffffffffffffffffffffffffffffffffffffffff168173ffffffffffffffffffffffffffffffffffffffff16036107025760006040517f1e4fbdf70000000000000000000000000000000000000000000000000000000081526004016106f99190610afb565b60405180910390fd5b61070b81610795565b50565b610716610859565b73ffffffffffffffffffffffffffffffffffffffff166107346103c5565b73ffffffffffffffffffffffffffffffffffffffff161461079357610757610859565b6040517f118cdaa700000000000000000000000000000000000000000000000000000000815260040161078a9190610afb565b60405180910390fd5b565b60008060009054906101000a900473ffffffffffffffffffffffffffffffffffffffff169050816000806101000a81548173ffffffffffffffffffffffffffffffffffffffff021916908373ffffffffffffffffffffffffffffffffffffffff1602179055508173ffffffffffffffffffffffffffffffffffffffff168173ffffffffffffffffffffffffffffffffffffffff167f8be0079c531659141344cd1fd0a4f28419497f9722a3daafe3b4186f6b6457e060405160405180910390a35050565b600033905090565b600080fd5b600080fd5b600073ffffffffffffffffffffffffffffffffffffffff82169050919050565b60006108968261086b565b9050919050565b6108a68161088b565b81146108b157600080fd5b50565b6000813590506108c38161089d565b92915050565b6000602082840312156108df576108de610861565b5b60006108ed848285016108b4565b91505092915050565b600080fd5b600080fd5b600080fd5b60008083601f84011261091b5761091a6108f6565b5b8235905067ffffffffffffffff811115610938576109376108fb565b5b60208301915083600182028301111561095457610953610900565b5b9250929050565b6000806020838503121561097257610971610861565b5b600083013567ffffffffffffffff8111156109905761098f610866565b5b61099c85828601610905565b92509250509250929050565b6000819050919050565b6109bb816109a8565b82525050565b60006020820190506109d660008301846109b2565b92915050565b6000819050919050565b6109ef816109dc565b81146109fa57600080fd5b50565b600081359050610a0c816109e6565b92915050565b600080600060408486031215610a2b57610a2a610861565b5b600084013567ffffffffffffffff811115610a4957610a48610866565b5b610a5586828701610905565b93509350506020610a68868287016109fd565b9150509250925092565b6000819050919050565b6000610a97610a92610a8d8461086b565b610a72565b61086b565b9050919050565b6000610aa982610a7c565b9050919050565b6000610abb82610a9e565b9050919050565b610acb81610ab0565b82525050565b6000602082019050610ae66000830184610ac2565b92915050565b610af58161088b565b82525050565b6000602082019050610b106000830184610aec565b92915050565b600081905092915050565b82818337600083830152505050565b6000610b3c8385610b16565b9350610b49838584610b21565b82840190509392505050565b6000610b62828486610b30565b91508190509392505050565b600082825260208201905092915050565b7f4e6f7420617574686f72697a6564000000000000000000000000000000000000600082015250565b6000610bb5600e83610b6e565b9150610bc082610b7f565b602082019050919050565b60006020820190508181036000830152610be481610ba8565b9050919050565b7f4e487b7100000000000000000000000000000000000000000000000000000000600052601160045260246000fd5b6000610c25826109a8565b9150610c30836109a8565b925082820190508281121560008312168382126000841215161715610c5857610c57610beb565b5b92915050565b6000610c69826109a8565b9150610c74836109a8565b9250828203905081811260008412168282136000851215161715610c9b57610c9a610beb565b5b92915050565b6000601f19601f8301169050919050565b6000610cbe8385610b6e565b9350610ccb838584610b21565b610cd483610ca1565b840190509392505050565b60006020820190508181036000830152610cfa818486610cb2565b9050939250505056fea264697066735822122082d2885b8bfad0ff8d7c096bbc908723d4508779f707a308666179081b38849c64736f6c63430008140033",
  "linkReferences": {},
  "deployedLinkReferences": {}
}